{
  "contractName": "itemManager",
  "abi": [
    {
      "anonymous": false,
      "inputs": [
        {
          "indexed": false,
          "internalType": "uint256",
          "name": "_itemIndex",
          "type": "uint256"
        },
        {
          "indexed": false,
          "internalType": "uint256",
          "name": "_step",
          "type": "uint256"
        },
        {
          "indexed": false,
          "internalType": "address",
          "name": "_itemAddress",
          "type": "address"
        }
      ],
      "name": "SupplyChainStep",
      "type": "event"
    },
    {
      "inputs": [
        {
          "internalType": "uint256",
          "name": "",
          "type": "uint256"
        }
      ],
      "name": "items",
      "outputs": [
        {
          "internalType": "contract Item",
          "name": "_item",
          "type": "address"
        },
        {
          "internalType": "string",
          "name": "_itemName",
          "type": "string"
        },
        {
          "internalType": "uint256",
          "name": "_itemPrice",
          "type": "uint256"
        },
        {
          "internalType": "enum itemManager.SupplyChainState",
          "name": "_state",
          "type": "uint8"
        }
      ],
      "stateMutability": "view",
      "type": "function",
      "constant": true
    },
    {
      "inputs": [],
      "name": "owner",
      "outputs": [
        {
          "internalType": "address",
          "name": "",
          "type": "address"
        }
      ],
      "stateMutability": "view",
      "type": "function",
      "constant": true
    },
    {
      "inputs": [
        {
          "internalType": "string",
          "name": "_itemName",
          "type": "string"
        },
        {
          "internalType": "uint256",
          "name": "_itemPrice",
          "type": "uint256"
        }
      ],
      "name": "createItem",
      "outputs": [],
      "stateMutability": "nonpayable",
      "type": "function"
    },
    {
      "inputs": [
        {
          "internalType": "uint256",
          "name": "_itemIndex",
          "type": "uint256"
        }
      ],
      "name": "paymentTrigger",
      "outputs": [],
      "stateMutability": "payable",
      "type": "function",
      "payable": true
    },
    {
      "inputs": [
        {
          "internalType": "uint256",
          "name": "_itemIndex",
          "type": "uint256"
        }
      ],
      "name": "delieveryTrigger",
      "outputs": [],
      "stateMutability": "nonpayable",
      "type": "function"
    }
  ],
  "bytecode": "0x608060405234801561001057600080fd5b50336000806101000a81548173ffffffffffffffffffffffffffffffffffffffff021916908373ffffffffffffffffffffffffffffffffffffffff1602179055506118f7806100606000396000f3fe608060405260043610620000505760003560e01c80633c275dc4146200005557806340ad1efd14620000835780638c55174214620000a35780638da5cb5b14620000d1578063bfb231d21462000101575b600080fd5b3480156200006257600080fd5b506200008160048036038101906200007b919062000a5f565b62000148565b005b620000a160048036038101906200009b919062000a5f565b6200035e565b005b348015620000b057600080fd5b50620000cf6004803603810190620000c99190620009f9565b6200053d565b005b348015620000de57600080fd5b50620000e962000790565b604051620000f8919062000bc3565b60405180910390f35b3480156200010e57600080fd5b506200012d600480360381019062000127919062000a5f565b620007b9565b6040516200013f949392919062000be0565b60405180910390f35b3373ffffffffffffffffffffffffffffffffffffffff1660008054906101000a900473ffffffffffffffffffffffffffffffffffffffff1673ffffffffffffffffffffffffffffffffffffffff1614620001d9576040517f08c379a0000000000000000000000000000000000000000000000000000000008152600401620001d09062000c71565b60405180910390fd5b60016002811115620001f057620001ef62000faa565b5b6001600083815260200190815260200160002060030160009054906101000a900460ff16600281111562000229576200022862000faa565b5b146200026c576040517f08c379a0000000000000000000000000000000000000000000000000000000008152600401620002639062000c93565b60405180910390fd5b60026001600083815260200190815260200160002060030160006101000a81548160ff02191690836002811115620002a957620002a862000faa565b5b02179055507fa4035636e99f06b7651a604c1019fa4e8779fe68ef27eeb74dff2de348f6199b6002546001600084815260200190815260200160002060030160009054906101000a900460ff1660028111156200030b576200030a62000faa565b5b6001600085815260200190815260200160002060000160009054906101000a900473ffffffffffffffffffffffffffffffffffffffff16604051620003539392919062000cf9565b60405180910390a150565b34600160008381526020019081526020016000206002015414620003b9576040517f08c379a0000000000000000000000000000000000000000000000000000000008152600401620003b09062000cb5565b60405180910390fd5b60006002811115620003d057620003cf62000faa565b5b6001600083815260200190815260200160002060030160009054906101000a900460ff16600281111562000409576200040862000faa565b5b146200044c576040517f08c379a0000000000000000000000000000000000000000000000000000000008152600401620004439062000cd7565b60405180910390fd5b600180600083815260200190815260200160002060030160006101000a81548160ff0219169083600281111562000488576200048762000faa565b5b02179055507fa4035636e99f06b7651a604c1019fa4e8779fe68ef27eeb74dff2de348f6199b6002546001600084815260200190815260200160002060030160009054906101000a900460ff166002811115620004ea57620004e962000faa565b5b6001600085815260200190815260200160002060000160009054906101000a900473ffffffffffffffffffffffffffffffffffffffff16604051620005329392919062000cf9565b60405180910390a150565b3373ffffffffffffffffffffffffffffffffffffffff1660008054906101000a900473ffffffffffffffffffffffffffffffffffffffff1673ffffffffffffffffffffffffffffffffffffffff1614620005ce576040517f08c379a0000000000000000000000000000000000000000000000000000000008152600401620005c59062000c71565b60405180910390fd5b60003082600254604051620005e390620008a6565b620005f19392919062000c34565b604051809103906000f0801580156200060e573d6000803e3d6000fd5b5090508060016000600254815260200190815260200160002060000160006101000a81548173ffffffffffffffffffffffffffffffffffffffff021916908373ffffffffffffffffffffffffffffffffffffffff16021790555082600160006002548152602001908152602001600020600101908051906020019062000696929190620008b4565b508160016000600254815260200190815260200160002060020181905550600060016000600254815260200190815260200160002060030160006101000a81548160ff02191690836002811115620006f357620006f262000faa565b5b02179055507fa4035636e99f06b7651a604c1019fa4e8779fe68ef27eeb74dff2de348f6199b60025460016000600254815260200190815260200160002060030160009054906101000a900460ff16600281111562000757576200075662000faa565b5b83604051620007699392919062000cf9565b60405180910390a160026000815480929190620007869062000f2d565b9190505550505050565b60008060009054906101000a900473ffffffffffffffffffffffffffffffffffffffff16905090565b60016020528060005260406000206000915090508060000160009054906101000a900473ffffffffffffffffffffffffffffffffffffffff1690806001018054620008049062000ec1565b80601f0160208091040260200160405190810160405280929190818152602001828054620008329062000ec1565b8015620008835780601f10620008575761010080835404028352916020019162000883565b820191906000526020600020905b8154815290600101906020018083116200086557829003601f168201915b5050505050908060020154908060030160009054906101000a900460ff16905084565b610790806200113283390190565b828054620008c29062000ec1565b90600052602060002090601f016020900481019282620008e6576000855562000932565b82601f106200090157805160ff191683800117855562000932565b8280016001018555821562000932579182015b828111156200093157825182559160200191906001019062000914565b5b50905062000941919062000945565b5090565b5b808211156200096057600081600090555060010162000946565b5090565b60006200097b620009758462000d5f565b62000d36565b9050828152602081018484840111156200099a57620009996200103c565b5b620009a784828562000e7c565b509392505050565b600082601f830112620009c757620009c662001037565b5b8135620009d984826020860162000964565b91505092915050565b600081359050620009f38162001117565b92915050565b6000806040838503121562000a135762000a1262001046565b5b600083013567ffffffffffffffff81111562000a345762000a3362001041565b5b62000a4285828601620009af565b925050602062000a5585828601620009e2565b9150509250929050565b60006020828403121562000a785762000a7762001046565b5b600062000a8884828501620009e2565b91505092915050565b62000a9c8162000db1565b82525050565b62000aad8162000e04565b82525050565b62000abe8162000e18565b82525050565b62000acf8162000e2c565b82525050565b600062000ae28262000d95565b62000aee818562000da0565b935062000b0081856020860162000e8b565b62000b0b816200104b565b840191505092915050565b600062000b2560188362000da0565b915062000b32826200105c565b602082019050919050565b600062000b4c60158362000da0565b915062000b598262001085565b602082019050919050565b600062000b7360178362000da0565b915062000b8082620010ae565b602082019050919050565b600062000b9a60168362000da0565b915062000ba782620010d7565b602082019050919050565b62000bbd8162000dfa565b82525050565b600060208201905062000bda600083018462000a91565b92915050565b600060808201905062000bf7600083018762000aa2565b818103602083015262000c0b818662000ad5565b905062000c1c604083018562000bb2565b62000c2b606083018462000ac4565b95945050505050565b600060608201905062000c4b600083018662000ab3565b62000c5a602083018562000bb2565b62000c69604083018462000bb2565b949350505050565b6000602082019050818103600083015262000c8c8162000b16565b9050919050565b6000602082019050818103600083015262000cae8162000b3d565b9050919050565b6000602082019050818103600083015262000cd08162000b64565b9050919050565b6000602082019050818103600083015262000cf28162000b8b565b9050919050565b600060608201905062000d10600083018662000bb2565b62000d1f602083018562000bb2565b62000d2e604083018462000a91565b949350505050565b600062000d4262000d55565b905062000d50828262000ef7565b919050565b6000604051905090565b600067ffffffffffffffff82111562000d7d5762000d7c62001008565b5b62000d88826200104b565b9050602081019050919050565b600081519050919050565b600082825260208201905092915050565b600062000dbe8262000dda565b9050919050565b600081905062000dd58262001100565b919050565b600073ffffffffffffffffffffffffffffffffffffffff82169050919050565b6000819050919050565b600062000e118262000e54565b9050919050565b600062000e258262000e40565b9050919050565b600062000e398262000dc5565b9050919050565b600062000e4d8262000e68565b9050919050565b600062000e618262000e68565b9050919050565b600062000e758262000dda565b9050919050565b82818337600083830152505050565b60005b8381101562000eab57808201518184015260208101905062000e8e565b8381111562000ebb576000848401525b50505050565b6000600282049050600182168062000eda57607f821691505b6020821081141562000ef15762000ef062000fd9565b5b50919050565b62000f02826200104b565b810181811067ffffffffffffffff8211171562000f245762000f2362001008565b5b80604052505050565b600062000f3a8262000dfa565b91507fffffffffffffffffffffffffffffffffffffffffffffffffffffffffffffffff82141562000f705762000f6f62000f7b565b5b600182019050919050565b7f4e487b7100000000000000000000000000000000000000000000000000000000600052601160045260246000fd5b7f4e487b7100000000000000000000000000000000000000000000000000000000600052602160045260246000fd5b7f4e487b7100000000000000000000000000000000000000000000000000000000600052602260045260246000fd5b7f4e487b7100000000000000000000000000000000000000000000000000000000600052604160045260246000fd5b600080fd5b600080fd5b600080fd5b600080fd5b6000601f19601f8301169050919050565b7f2063616c6c6572206973206e6f7420746865206f776e65720000000000000000600082015250565b7f4974656d73206973206e6f742059657420506169640000000000000000000000600082015250565b7f596f75204e65656420746f2050617920696e2046756c6c000000000000000000600082015250565b7f4974656d73206973206e6f7420417661696c61626c6500000000000000000000600082015250565b6003811062001114576200111362000faa565b5b50565b620011228162000dfa565b81146200112e57600080fd5b5056fe608060405234801561001057600080fd5b50604051610790380380610790833981810160405281019061003291906100b3565b816000819055508060018190555082600360006101000a81548173ffffffffffffffffffffffffffffffffffffffff021916908373ffffffffffffffffffffffffffffffffffffffff160217905550505050610187565b60008151905061009881610159565b92915050565b6000815190506100ad81610170565b92915050565b6000806000606084860312156100cc576100cb610154565b5b60006100da86828701610089565b93505060206100eb8682870161009e565b92505060406100fc8682870161009e565b9150509250925092565b60006101118261012a565b9050919050565b600061012382610106565b9050919050565b600073ffffffffffffffffffffffffffffffffffffffff82169050919050565b6000819050919050565b600080fd5b61016281610118565b811461016d57600080fd5b50565b6101798161014a565b811461018457600080fd5b50565b6105fa806101966000396000f3fe6080604052600436106100385760003560e01c80632986c0e5146102465780633c8da5881461027157806389794d001461029c57610241565b3661024157600060025414610082576040517f08c379a0000000000000000000000000000000000000000000000000000000008152600401610079906103d9565b60405180910390fd5b34600054146100c6576040517f08c379a00000000000000000000000000000000000000000000000000000000081526004016100bd90610399565b60405180910390fd5b34600260008282546100d8919061043b565b925050819055506000600360009054906101000a900473ffffffffffffffffffffffffffffffffffffffff1673ffffffffffffffffffffffffffffffffffffffff163460015460405160240161012e91906103f9565b6040516020818303038152906040527f40ad1efd000000000000000000000000000000000000000000000000000000007bffffffffffffffffffffffffffffffffffffffffffffffffffffffff19166020820180517bffffffffffffffffffffffffffffffffffffffffffffffffffffffff83818316178352505050506040516101b89190610382565b60006040518083038185875af1925050503d80600081146101f5576040519150601f19603f3d011682016040523d82523d6000602084013e6101fa565b606091505b505090508061023e576040517f08c379a0000000000000000000000000000000000000000000000000000000008152600401610235906103b9565b60405180910390fd5b50005b600080fd5b34801561025257600080fd5b5061025b6102c7565b60405161026891906103f9565b60405180910390f35b34801561027d57600080fd5b506102866102cd565b60405161029391906103f9565b60405180910390f35b3480156102a857600080fd5b506102b16102d3565b6040516102be91906103f9565b60405180910390f35b60015481565b60005481565b60025481565b60006102e482610414565b6102ee818561041f565b93506102fe81856020860161049b565b80840191505092915050565b6000610317601e8361042a565b9150610322826104fd565b602082019050919050565b600061033a602d8361042a565b915061034582610526565b604082019050919050565b600061035d602a8361042a565b915061036882610575565b604082019050919050565b61037c81610491565b82525050565b600061038e82846102d9565b915081905092915050565b600060208201905081810360008301526103b28161030a565b9050919050565b600060208201905081810360008301526103d28161032d565b9050919050565b600060208201905081810360008301526103f281610350565b9050919050565b600060208201905061040e6000830184610373565b92915050565b600081519050919050565b600081905092915050565b600082825260208201905092915050565b600061044682610491565b915061045183610491565b9250827fffffffffffffffffffffffffffffffffffffffffffffffffffffffffffffffff03821115610486576104856104ce565b5b828201905092915050565b6000819050919050565b60005b838110156104b957808201518184015260208101905061049e565b838111156104c8576000848401525b50505050565b7f4e487b7100000000000000000000000000000000000000000000000000000000600052601160045260246000fd5b7f4f6e6c792066756c6c207061796d656e74732061726520616c6c6f7765640000600082015250565b7f546865205472616e73616374696f6e206973206e6f742073756363657366756c60008201527f6c2c2043616e63656c6c696e6700000000000000000000000000000000000000602082015250565b7f5061796d656e7420666f7220746865204974656d20686173206265656e20616c60008201527f726561647920646f6e650000000000000000000000000000000000000000000060208201525056fea2646970667358221220dc76961da7662035e1ee045ba4be4dc381fc885d2bd1a44591d3d6e99393936864736f6c63430008070033a26469706673582212206ad66fac9ec7b422073f6611144819ddcc4401809e354a7cf71089022a2c8b5964736f6c63430008070033",
  "immutableReferences": {},
  "source": "// SPDX-License-Identifier: MIT\r\npragma solidity ^0.8.7;\r\nimport \"./Item.sol\";\r\nimport \"./OnlyOwner.sol\";\r\n\r\ncontract itemManager is Ownable {\r\n    enum SupplyChainState {\r\n        Created,\r\n        Paid,\r\n        Delivered\r\n    }\r\n\r\n    struct S_items {\r\n        Item _item;\r\n        string _itemName;\r\n        uint256 _itemPrice;\r\n        itemManager.SupplyChainState _state;\r\n    }\r\n\r\n    mapping(uint256 => S_items) public items;\r\n    uint256 itemIndex;\r\n\r\n    event SupplyChainStep(\r\n        uint256 _itemIndex,\r\n        uint256 _step,\r\n        address _itemAddress\r\n    );\r\n\r\n    function createItem(string memory _itemName, uint256 _itemPrice)\r\n        public\r\n        onlyOwner\r\n    {\r\n        Item item = new Item(this, _itemPrice, itemIndex);\r\n        items[itemIndex]._item = item;\r\n        items[itemIndex]._itemName = _itemName;\r\n        items[itemIndex]._itemPrice = _itemPrice;\r\n        items[itemIndex]._state = SupplyChainState.Created;\r\n        emit SupplyChainStep(\r\n            itemIndex,\r\n            uint256(items[itemIndex]._state),\r\n            address(item)\r\n        );\r\n        itemIndex++;\r\n    }\r\n\r\n    function paymentTrigger(uint256 _itemIndex) public payable {\r\n        require(\r\n            items[_itemIndex]._itemPrice == msg.value,\r\n            \"You Need to Pay in Full\"\r\n        );\r\n        require(\r\n            items[_itemIndex]._state == SupplyChainState.Created,\r\n            \"Items is not Available\"\r\n        );\r\n        items[_itemIndex]._state = SupplyChainState.Paid;\r\n        emit SupplyChainStep(\r\n            itemIndex,\r\n            uint256(items[_itemIndex]._state),\r\n            address(items[_itemIndex]._item)\r\n        );\r\n    }\r\n\r\n    function delieveryTrigger(uint256 _itemIndex) public onlyOwner {\r\n        require(\r\n            items[_itemIndex]._state == SupplyChainState.Paid,\r\n            \"Items is not Yet Paid\"\r\n        );\r\n        items[_itemIndex]._state = SupplyChainState.Delivered;\r\n        emit SupplyChainStep(\r\n            itemIndex,\r\n            uint256(items[_itemIndex]._state),\r\n            address(items[_itemIndex]._item)\r\n        );\r\n    }\r\n}\r\n",
  "sourcePath": "C:\\TruffleEvenTrigger\\contracts\\ItemManager.sol",
  "compiler": {
    "name": "solc",
    "version": "0.8.7+commit.e28d00a7.Emscripten.clang"
  },
  "schemaVersion": "3.4.4",
  "updatedAt": "2022-05-30T15:54:56.254Z",
  "networkType": "ethereum",
  "devdoc": {
    "kind": "dev",
    "methods": {},
    "version": 1
  },
  "userdoc": {
    "kind": "user",
    "methods": {},
    "version": 1
  }
}